{
  "contractName": "FunkyKeys",
  "abi": [
    {
      "inputs": [
        {
          "internalType": "address",
          "name": "_tokenInventory",
          "type": "address"
        }
      ],
      "stateMutability": "nonpayable",
      "type": "constructor"
    },
    {
      "anonymous": false,
      "inputs": [
        {
          "indexed": true,
          "internalType": "address",
          "name": "account",
          "type": "address"
        },
        {
          "indexed": true,
          "internalType": "address",
          "name": "operator",
          "type": "address"
        },
        {
          "indexed": false,
          "internalType": "bool",
          "name": "approved",
          "type": "bool"
        }
      ],
      "name": "ApprovalForAll",
      "type": "event"
    },
    {
      "anonymous": false,
      "inputs": [
        {
          "indexed": true,
          "internalType": "address",
          "name": "operator",
          "type": "address"
        },
        {
          "indexed": true,
          "internalType": "address",
          "name": "from",
          "type": "address"
        },
        {
          "indexed": true,
          "internalType": "address",
          "name": "to",
          "type": "address"
        },
        {
          "indexed": false,
          "internalType": "uint256[]",
          "name": "ids",
          "type": "uint256[]"
        },
        {
          "indexed": false,
          "internalType": "uint256[]",
          "name": "values",
          "type": "uint256[]"
        }
      ],
      "name": "TransferBatch",
      "type": "event"
    },
    {
      "anonymous": false,
      "inputs": [
        {
          "indexed": true,
          "internalType": "address",
          "name": "operator",
          "type": "address"
        },
        {
          "indexed": true,
          "internalType": "address",
          "name": "from",
          "type": "address"
        },
        {
          "indexed": true,
          "internalType": "address",
          "name": "to",
          "type": "address"
        },
        {
          "indexed": false,
          "internalType": "uint256",
          "name": "id",
          "type": "uint256"
        },
        {
          "indexed": false,
          "internalType": "uint256",
          "name": "value",
          "type": "uint256"
        }
      ],
      "name": "TransferSingle",
      "type": "event"
    },
    {
      "anonymous": false,
      "inputs": [
        {
          "indexed": false,
          "internalType": "string",
          "name": "value",
          "type": "string"
        },
        {
          "indexed": true,
          "internalType": "uint256",
          "name": "id",
          "type": "uint256"
        }
      ],
      "name": "URI",
      "type": "event"
    },
    {
      "anonymous": false,
      "inputs": [
        {
          "indexed": true,
          "internalType": "address",
          "name": "_sender",
          "type": "address"
        },
        {
          "indexed": true,
          "internalType": "uint256",
          "name": "_tokenID",
          "type": "uint256"
        },
        {
          "indexed": false,
          "internalType": "uint16",
          "name": "_amount",
          "type": "uint16"
        }
      ],
      "name": "tokenBurned",
      "type": "event"
    },
    {
      "inputs": [
        {
          "internalType": "address",
          "name": "account",
          "type": "address"
        },
        {
          "internalType": "uint256",
          "name": "id",
          "type": "uint256"
        }
      ],
      "name": "balanceOf",
      "outputs": [
        {
          "internalType": "uint256",
          "name": "",
          "type": "uint256"
        }
      ],
      "stateMutability": "view",
      "type": "function",
      "constant": true
    },
    {
      "inputs": [
        {
          "internalType": "address[]",
          "name": "accounts",
          "type": "address[]"
        },
        {
          "internalType": "uint256[]",
          "name": "ids",
          "type": "uint256[]"
        }
      ],
      "name": "balanceOfBatch",
      "outputs": [
        {
          "internalType": "uint256[]",
          "name": "",
          "type": "uint256[]"
        }
      ],
      "stateMutability": "view",
      "type": "function",
      "constant": true
    },
    {
      "inputs": [
        {
          "internalType": "address",
          "name": "account",
          "type": "address"
        },
        {
          "internalType": "address",
          "name": "operator",
          "type": "address"
        }
      ],
      "name": "isApprovedForAll",
      "outputs": [
        {
          "internalType": "bool",
          "name": "",
          "type": "bool"
        }
      ],
      "stateMutability": "view",
      "type": "function",
      "constant": true
    },
    {
      "inputs": [
        {
          "internalType": "address",
          "name": "from",
          "type": "address"
        },
        {
          "internalType": "address",
          "name": "to",
          "type": "address"
        },
        {
          "internalType": "uint256[]",
          "name": "ids",
          "type": "uint256[]"
        },
        {
          "internalType": "uint256[]",
          "name": "amounts",
          "type": "uint256[]"
        },
        {
          "internalType": "bytes",
          "name": "data",
          "type": "bytes"
        }
      ],
      "name": "safeBatchTransferFrom",
      "outputs": [],
      "stateMutability": "nonpayable",
      "type": "function"
    },
    {
      "inputs": [
        {
          "internalType": "address",
          "name": "from",
          "type": "address"
        },
        {
          "internalType": "address",
          "name": "to",
          "type": "address"
        },
        {
          "internalType": "uint256",
          "name": "id",
          "type": "uint256"
        },
        {
          "internalType": "uint256",
          "name": "amount",
          "type": "uint256"
        },
        {
          "internalType": "bytes",
          "name": "data",
          "type": "bytes"
        }
      ],
      "name": "safeTransferFrom",
      "outputs": [],
      "stateMutability": "nonpayable",
      "type": "function"
    },
    {
      "inputs": [
        {
          "internalType": "address",
          "name": "operator",
          "type": "address"
        },
        {
          "internalType": "bool",
          "name": "approved",
          "type": "bool"
        }
      ],
      "name": "setApprovalForAll",
      "outputs": [],
      "stateMutability": "nonpayable",
      "type": "function"
    },
    {
      "inputs": [
        {
          "internalType": "bytes4",
          "name": "interfaceId",
          "type": "bytes4"
        }
      ],
      "name": "supportsInterface",
      "outputs": [
        {
          "internalType": "bool",
          "name": "",
          "type": "bool"
        }
      ],
      "stateMutability": "view",
      "type": "function",
      "constant": true
    },
    {
      "inputs": [
        {
          "internalType": "uint256",
          "name": "",
          "type": "uint256"
        }
      ],
      "name": "uri",
      "outputs": [
        {
          "internalType": "string",
          "name": "",
          "type": "string"
        }
      ],
      "stateMutability": "view",
      "type": "function",
      "constant": true
    },
    {
      "inputs": [
        {
          "internalType": "address",
          "name": "_newOwner",
          "type": "address"
        }
      ],
      "name": "addOwner",
      "outputs": [],
      "stateMutability": "nonpayable",
      "type": "function"
    },
    {
      "inputs": [
        {
          "internalType": "uint256",
          "name": "initialSupply",
          "type": "uint256"
        },
        {
          "internalType": "uint256",
          "name": "price",
          "type": "uint256"
        }
      ],
      "name": "addNewProduct",
      "outputs": [],
      "stateMutability": "nonpayable",
      "type": "function"
    },
    {
      "inputs": [
        {
          "internalType": "uint256",
          "name": "price",
          "type": "uint256"
        },
        {
          "internalType": "uint256",
          "name": "_id",
          "type": "uint256"
        }
      ],
      "name": "editPrice",
      "outputs": [],
      "stateMutability": "nonpayable",
      "type": "function"
    },
    {
      "inputs": [
        {
          "internalType": "uint256",
          "name": "_id",
          "type": "uint256"
        }
      ],
      "name": "getPrice",
      "outputs": [
        {
          "internalType": "uint256",
          "name": "",
          "type": "uint256"
        }
      ],
      "stateMutability": "view",
      "type": "function",
      "constant": true
    },
    {
      "inputs": [
        {
          "internalType": "uint256",
          "name": "_id",
          "type": "uint256"
        },
        {
          "internalType": "uint16",
          "name": "_count",
          "type": "uint16"
        }
      ],
      "name": "burn",
      "outputs": [],
      "stateMutability": "nonpayable",
      "type": "function"
    },
    {
      "inputs": [
        {
          "internalType": "uint256",
          "name": "_tokenID",
          "type": "uint256"
        }
      ],
      "name": "buyListing",
      "outputs": [],
      "stateMutability": "payable",
      "type": "function",
      "payable": true
    }
  ],
  "bytecode": "0x60806040523480156200001157600080fd5b5060405162001c5938038062001c59833981016040819052620000349162000154565b6040805160208101909152600081526200004e8162000095565b50336000908152600360205260408120805460ff19166001179055600480546001600160a01b03939093166001600160a01b031990931692909217909155600555620001c2565b8051620000aa906002906020840190620000ae565b5050565b828054620000bc9062000186565b90600052602060002090601f016020900481019282620000e057600085556200012b565b82601f10620000fb57805160ff19168380011785556200012b565b828001600101855582156200012b579182015b828111156200012b5782518255916020019190600101906200010e565b50620001399291506200013d565b5090565b5b808211156200013957600081556001016200013e565b6000602082840312156200016757600080fd5b81516001600160a01b03811681146200017f57600080fd5b9392505050565b600181811c908216806200019b57607f821691505b602082108103620001bc57634e487b7160e01b600052602260045260246000fd5b50919050565b611a8780620001d26000396000f3fe6080604052600436106100dc5760003560e01c80634e1273f41161007f578063d0e7a5cb11610059578063d0e7a5cb14610253578063e757223014610273578063e985e9c5146102a0578063f242432a146102e957600080fd5b80634e1273f4146101e65780637065cb4814610213578063a22cb4651461023357600080fd5b80630e89341c116100bb5780630e89341c146101665780632eb2c2d6146101935780634884f459146101b35780634b5875f9146101c657600080fd5b8062fdd58e146100e157806301ffc9a714610114578063095d019114610144575b600080fd5b3480156100ed57600080fd5b506101016100fc3660046111d0565b610309565b6040519081526020015b60405180910390f35b34801561012057600080fd5b5061013461012f366004611210565b6103a0565b604051901515815260200161010b565b34801561015057600080fd5b5061016461015f366004611234565b6103f2565b005b34801561017257600080fd5b50610186610181366004611256565b610477565b60405161010b91906112bc565b34801561019f57600080fd5b506101646101ae36600461141b565b61050b565b6101646101c1366004611256565b6105a2565b3480156101d257600080fd5b506101646101e13660046114c5565b610654565b3480156101f257600080fd5b506102066102013660046114fc565b6106a2565b60405161010b9190611602565b34801561021f57600080fd5b5061016461022e366004611615565b6107cc565b34801561023f57600080fd5b5061016461024e366004611630565b61081f565b34801561025f57600080fd5b5061016461026e366004611234565b61082e565b34801561027f57600080fd5b5061010161028e366004611256565b60009081526006602052604090205490565b3480156102ac57600080fd5b506101346102bb366004611661565b6001600160a01b03918216600090815260016020908152604080832093909416825291909152205460ff1690565b3480156102f557600080fd5b50610164610304366004611694565b61086e565b60006001600160a01b03831661037a5760405162461bcd60e51b815260206004820152602b60248201527f455243313135353a2062616c616e636520717565727920666f7220746865207a60448201526a65726f206164647265737360a81b60648201526084015b60405180910390fd5b506000908152602081815260408083206001600160a01b03949094168352929052205490565b60006001600160e01b03198216636cdb3d1360e11b14806103d157506001600160e01b031982166303a24d0760e21b145b806103ec57506301ffc9a760e01b6001600160e01b03198316145b92915050565b3360009081526003602052604090205460ff166104215760405162461bcd60e51b8152600401610371906116f9565b60045460055460408051602081019091526000815261044c926001600160a01b0316919085906108f5565b6005805460009081526006602052604081208390558154919061046e83611746565b91905055505050565b6060600280546104869061175f565b80601f01602080910402602001604051908101604052809291908181526020018280546104b29061175f565b80156104ff5780601f106104d4576101008083540402835291602001916104ff565b820191906000526020600020905b8154815290600101906020018083116104e257829003601f168201915b50505050509050919050565b6001600160a01b038516331480610527575061052785336102bb565b61058e5760405162461bcd60e51b815260206004820152603260248201527f455243313135353a207472616e736665722063616c6c6572206973206e6f74206044820152711bdddb995c881b9bdc88185c1c1c9bdd995960721b6064820152608401610371565b61059b85858585856109ff565b5050505050565b6000818152600660205260409020546105c390670de0b6b3a7640000611799565b34146106255760405162461bcd60e51b815260206004820152602b60248201527f53656e642074686520657861637420616d6f756e74207370656369666965642060448201526a627920676574507269636560a81b6064820152608401610371565b600454604080516020810190915260008152610651916001600160a01b03169033908490600190610bdc565b50565b61066333838361ffff16610cf9565b60405161ffff82168152829033907f41f29528f6780f580d870f9fc331fba98b75eb7cf6188255c714335a277b86249060200160405180910390a35050565b606081518351146107075760405162461bcd60e51b815260206004820152602960248201527f455243313135353a206163636f756e747320616e6420696473206c656e677468604482015268040dad2e6dac2e8c6d60bb1b6064820152608401610371565b6000835167ffffffffffffffff811115610723576107236112cf565b60405190808252806020026020018201604052801561074c578160200160208202803683370190505b50905060005b84518110156107c457610797858281518110610770576107706117b8565b602002602001015185838151811061078a5761078a6117b8565b6020026020010151610309565b8282815181106107a9576107a96117b8565b60209081029190910101526107bd81611746565b9050610752565b509392505050565b3360009081526003602052604090205460ff166107fb5760405162461bcd60e51b8152600401610371906116f9565b6001600160a01b03166000908152600360205260409020805460ff19166001179055565b61082a338383610e73565b5050565b3360009081526003602052604090205460ff1661085d5760405162461bcd60e51b8152600401610371906116f9565b600090815260066020526040902055565b6001600160a01b03851633148061088a575061088a85336102bb565b6108e85760405162461bcd60e51b815260206004820152602960248201527f455243313135353a2063616c6c6572206973206e6f74206f776e6572206e6f7260448201526808185c1c1c9bdd995960ba1b6064820152608401610371565b61059b8585858585610bdc565b6001600160a01b0384166109555760405162461bcd60e51b815260206004820152602160248201527f455243313135353a206d696e7420746f20746865207a65726f206164647265736044820152607360f81b6064820152608401610371565b3361096f8160008761096688610f53565b61059b88610f53565b6000848152602081815260408083206001600160a01b03891684529091528120805485929061099f9084906117ce565b909155505060408051858152602081018590526001600160a01b0380881692600092918516917fc3d58168c5ae7397731d063d5bbf3d657854427343f4c083240f7aacaa2d0f62910160405180910390a461059b81600087878787610f9e565b8151835114610a615760405162461bcd60e51b815260206004820152602860248201527f455243313135353a2069647320616e6420616d6f756e7473206c656e677468206044820152670dad2e6dac2e8c6d60c31b6064820152608401610371565b6001600160a01b038416610a875760405162461bcd60e51b8152600401610371906117e6565b3360005b8451811015610b6e576000858281518110610aa857610aa86117b8565b602002602001015190506000858381518110610ac657610ac66117b8565b602090810291909101810151600084815280835260408082206001600160a01b038e168352909352919091205490915081811015610b165760405162461bcd60e51b81526004016103719061182b565b6000838152602081815260408083206001600160a01b038e8116855292528083208585039055908b16825281208054849290610b539084906117ce565b9250508190555050505080610b6790611746565b9050610a8b565b50846001600160a01b0316866001600160a01b0316826001600160a01b03167f4a39dc06d4c0dbc64b70af90fd698a233a518aa5d07e595d983b8c0526c8f7fb8787604051610bbe929190611875565b60405180910390a4610bd48187878787876110f9565b505050505050565b6001600160a01b038416610c025760405162461bcd60e51b8152600401610371906117e6565b33610c1281878761096688610f53565b6000848152602081815260408083206001600160a01b038a16845290915290205483811015610c535760405162461bcd60e51b81526004016103719061182b565b6000858152602081815260408083206001600160a01b038b8116855292528083208785039055908816825281208054869290610c909084906117ce565b909155505060408051868152602081018690526001600160a01b03808916928a821692918616917fc3d58168c5ae7397731d063d5bbf3d657854427343f4c083240f7aacaa2d0f62910160405180910390a4610cf0828888888888610f9e565b50505050505050565b6001600160a01b038316610d5b5760405162461bcd60e51b815260206004820152602360248201527f455243313135353a206275726e2066726f6d20746865207a65726f206164647260448201526265737360e81b6064820152608401610371565b33610d8b81856000610d6c87610f53565b610d7587610f53565b5050604080516020810190915260009052505050565b6000838152602081815260408083206001600160a01b038816845290915290205482811015610e085760405162461bcd60e51b8152602060048201526024808201527f455243313135353a206275726e20616d6f756e7420657863656564732062616c604482015263616e636560e01b6064820152608401610371565b6000848152602081815260408083206001600160a01b03898116808652918452828520888703905582518981529384018890529092908616917fc3d58168c5ae7397731d063d5bbf3d657854427343f4c083240f7aacaa2d0f62910160405180910390a45050505050565b816001600160a01b0316836001600160a01b031603610ee65760405162461bcd60e51b815260206004820152602960248201527f455243313135353a2073657474696e6720617070726f76616c20737461747573604482015268103337b91039b2b63360b91b6064820152608401610371565b6001600160a01b03838116600081815260016020908152604080832094871680845294825291829020805460ff191686151590811790915591519182527f17307eab39ab6107e8899845ad3d59bd9653f200f220920489ca2b5937696c31910160405180910390a3505050565b60408051600180825281830190925260609160009190602080830190803683370190505090508281600081518110610f8d57610f8d6117b8565b602090810291909101015292915050565b6001600160a01b0384163b15610bd45760405163f23a6e6160e01b81526001600160a01b0385169063f23a6e6190610fe290899089908890889088906004016118a3565b6020604051808303816000875af192505050801561101d575060408051601f3d908101601f1916820190925261101a918101906118e8565b60015b6110c957611029611905565b806308c379a003611062575061103d611921565b806110485750611064565b8060405162461bcd60e51b815260040161037191906112bc565b505b60405162461bcd60e51b815260206004820152603460248201527f455243313135353a207472616e7366657220746f206e6f6e20455243313135356044820152732932b1b2b4bb32b91034b6b83632b6b2b73a32b960611b6064820152608401610371565b6001600160e01b0319811663f23a6e6160e01b14610cf05760405162461bcd60e51b8152600401610371906119ab565b6001600160a01b0384163b15610bd45760405163bc197c8160e01b81526001600160a01b0385169063bc197c819061113d90899089908890889088906004016119f3565b6020604051808303816000875af1925050508015611178575060408051601f3d908101601f19168201909252611175918101906118e8565b60015b61118457611029611905565b6001600160e01b0319811663bc197c8160e01b14610cf05760405162461bcd60e51b8152600401610371906119ab565b80356001600160a01b03811681146111cb57600080fd5b919050565b600080604083850312156111e357600080fd5b6111ec836111b4565b946020939093013593505050565b6001600160e01b03198116811461065157600080fd5b60006020828403121561122257600080fd5b813561122d816111fa565b9392505050565b6000806040838503121561124757600080fd5b50508035926020909101359150565b60006020828403121561126857600080fd5b5035919050565b6000815180845260005b8181101561129557602081850181015186830182015201611279565b818111156112a7576000602083870101525b50601f01601f19169290920160200192915050565b60208152600061122d602083018461126f565b634e487b7160e01b600052604160045260246000fd5b601f8201601f1916810167ffffffffffffffff8111828210171561130b5761130b6112cf565b6040525050565b600067ffffffffffffffff82111561132c5761132c6112cf565b5060051b60200190565b600082601f83011261134757600080fd5b8135602061135482611312565b60405161136182826112e5565b83815260059390931b850182019282810191508684111561138157600080fd5b8286015b8481101561139c5780358352918301918301611385565b509695505050505050565b600082601f8301126113b857600080fd5b813567ffffffffffffffff8111156113d2576113d26112cf565b6040516113e9601f8301601f1916602001826112e5565b8181528460208386010111156113fe57600080fd5b816020850160208301376000918101602001919091529392505050565b600080600080600060a0868803121561143357600080fd5b61143c866111b4565b945061144a602087016111b4565b9350604086013567ffffffffffffffff8082111561146757600080fd5b61147389838a01611336565b9450606088013591508082111561148957600080fd5b61149589838a01611336565b935060808801359150808211156114ab57600080fd5b506114b8888289016113a7565b9150509295509295909350565b600080604083850312156114d857600080fd5b82359150602083013561ffff811681146114f157600080fd5b809150509250929050565b6000806040838503121561150f57600080fd5b823567ffffffffffffffff8082111561152757600080fd5b818501915085601f83011261153b57600080fd5b8135602061154882611312565b60405161155582826112e5565b83815260059390931b850182019282810191508984111561157557600080fd5b948201945b8386101561159a5761158b866111b4565b8252948201949082019061157a565b965050860135925050808211156115b057600080fd5b506115bd85828601611336565b9150509250929050565b600081518084526020808501945080840160005b838110156115f7578151875295820195908201906001016115db565b509495945050505050565b60208152600061122d60208301846115c7565b60006020828403121561162757600080fd5b61122d826111b4565b6000806040838503121561164357600080fd5b61164c836111b4565b9150602083013580151581146114f157600080fd5b6000806040838503121561167457600080fd5b61167d836111b4565b915061168b602084016111b4565b90509250929050565b600080600080600060a086880312156116ac57600080fd5b6116b5866111b4565b94506116c3602087016111b4565b93506040860135925060608601359150608086013567ffffffffffffffff8111156116ed57600080fd5b6114b8888289016113a7565b60208082526019908201527f43616c6c6572206973206e6f7420676f7665726e616e63652e00000000000000604082015260600190565b634e487b7160e01b600052601160045260246000fd5b60006001820161175857611758611730565b5060010190565b600181811c9082168061177357607f821691505b60208210810361179357634e487b7160e01b600052602260045260246000fd5b50919050565b60008160001904831182151516156117b3576117b3611730565b500290565b634e487b7160e01b600052603260045260246000fd5b600082198211156117e1576117e1611730565b500190565b60208082526025908201527f455243313135353a207472616e7366657220746f20746865207a65726f206164604082015264647265737360d81b606082015260800190565b6020808252602a908201527f455243313135353a20696e73756666696369656e742062616c616e636520666f60408201526939103a3930b739b332b960b11b606082015260800190565b60408152600061188860408301856115c7565b828103602084015261189a81856115c7565b95945050505050565b6001600160a01b03868116825285166020820152604081018490526060810183905260a0608082018190526000906118dd9083018461126f565b979650505050505050565b6000602082840312156118fa57600080fd5b815161122d816111fa565b600060033d111561191e5760046000803e5060005160e01c5b90565b600060443d101561192f5790565b6040516003193d81016004833e81513d67ffffffffffffffff816024840111818411171561195f57505050505090565b82850191508151818111156119775750505050505090565b843d87010160208285010111156119915750505050505090565b6119a0602082860101876112e5565b509095945050505050565b60208082526028908201527f455243313135353a204552433131353552656365697665722072656a656374656040820152676420746f6b656e7360c01b606082015260800190565b6001600160a01b0386811682528516602082015260a060408201819052600090611a1f908301866115c7565b8281036060840152611a3181866115c7565b90508281036080840152611a45818561126f565b9897505050505050505056fea26469706673582212207084d70f95c7e6e46e28beafee87ed42ff821c2ba70a4317de40da9c3fd16ead64736f6c634300080d0033",
  "immutableReferences": {},
  "source": "//SPDX-License-Identifier: MIT\npragma solidity ^0.8.13;\n\nimport \"@openzeppelin/contracts/token/ERC1155/ERC1155.sol\";\n\ncontract FunkyKeys is ERC1155{\n\t\t\n\tmapping(address => bool) private governance;\n\taddress tokenInventory;\n\tuint256 private productCount;\n\tmapping(uint256 => uint256) productToPrice;\n\t\n\tevent tokenBurned(address indexed _sender, uint256 indexed _tokenID, uint16 _amount);\n\n\tconstructor(address _tokenInventory) public ERC1155(\"\") {\n\t\tgovernance[msg.sender] = true;\n\t\ttokenInventory = _tokenInventory;\n\t\tproductCount = 0;\n\t}\n\n\tmodifier ensureCallerIsOwner() {\n\t\trequire(governance[msg.sender], \"Caller is not governance.\");\n\t\t_;\n\t}\n\n\tfunction addOwner(address _newOwner) external ensureCallerIsOwner{\n\t\tgovernance[_newOwner] = true;\n\t}\n\n\tfunction addNewProduct(uint256 initialSupply, uint256 price) external ensureCallerIsOwner {\n\t\t_mint(tokenInventory, productCount, initialSupply, \"\");\n\t\tproductToPrice[productCount] = price;\n\t\tproductCount++;\n\t}\n\n\tfunction editPrice(uint256 price, uint256 _id) external ensureCallerIsOwner {\n\t\tproductToPrice[_id] = price;\n\t}\n\t\n\tfunction getPrice(uint256 _id) public view returns (uint256){\n\t\treturn productToPrice[_id];\n\t}\n\t\n\tfunction burn(uint256 _id, uint16 _count) public{\n\t\t_burn(msg.sender, _id, _count);\n\t\temit tokenBurned(msg.sender, _id, _count);\n\t}\n\n\tfunction buyListing(uint256 _tokenID) public payable{\n\t\trequire (msg.value == productToPrice[_tokenID] * (1 ether), \"Send the exact amount specified by getPrice\");\n\t\t_safeTransferFrom(tokenInventory, msg.sender, _tokenID, 1, \"\");\n\t}\n}\n",
  "sourcePath": "/home/nathanrliu/funkyKeys/blockchain/contracts/FunkyKeys.sol",
  "compiler": {
    "name": "solc",
    "version": "0.8.13+commit.abaa5c0e.Emscripten.clang"
  },
  "schemaVersion": "3.4.6",
  "updatedAt": "2022-04-03T22:53:04.294Z",
  "networkType": "ethereum",
  "devdoc": {
    "kind": "dev",
    "methods": {
      "balanceOf(address,uint256)": {
        "details": "See {IERC1155-balanceOf}. Requirements: - `account` cannot be the zero address."
      },
      "balanceOfBatch(address[],uint256[])": {
        "details": "See {IERC1155-balanceOfBatch}. Requirements: - `accounts` and `ids` must have the same length."
      },
      "isApprovedForAll(address,address)": {
        "details": "See {IERC1155-isApprovedForAll}."
      },
      "safeBatchTransferFrom(address,address,uint256[],uint256[],bytes)": {
        "details": "See {IERC1155-safeBatchTransferFrom}."
      },
      "safeTransferFrom(address,address,uint256,uint256,bytes)": {
        "details": "See {IERC1155-safeTransferFrom}."
      },
      "setApprovalForAll(address,bool)": {
        "details": "See {IERC1155-setApprovalForAll}."
      },
      "supportsInterface(bytes4)": {
        "details": "See {IERC165-supportsInterface}."
      },
      "uri(uint256)": {
        "details": "See {IERC1155MetadataURI-uri}. This implementation returns the same URI for *all* token types. It relies on the token type ID substitution mechanism https://eips.ethereum.org/EIPS/eip-1155#metadata[defined in the EIP]. Clients calling this function must replace the `\\{id\\}` substring with the actual token type ID."
      }
    },
    "version": 1
  },
  "userdoc": {
    "kind": "user",
    "methods": {},
    "version": 1
  }
}